:020000040000fa
:08000000000c040000000000e8
:020000040000fa
:10000800000b0000020b0000040b0000060b0000b0
:10001800080b00000a0b00000c0b00000e0b000080
:10002800100b0000120b0000140b0000160b000050
:10003800180b00001a0b00001c0b00001e0b000020
:10004800200b0000220b0000240b0000260b0000f0
:10005800280b00002a0b00002c0b00002e0b0000c0
:10006800300b0000320b0000340b0000360b000090
:10007800380b00003a0b00003c0b00003e0b000060
:10008800400b0000420b0000440b0000460b000030
:10009800480b00004a0b00004c0b00004e0b000000
:1000a800500b0000520b0000540b0000560b0000d0
:1000b800580b00005a0b00005c0b00005e0b0000a0
:1000c800600b0000620b0000640b0000660b000070
:1000d800680b00006a0b00006c0b00006e0b000040
:1000e800700b0000720b0000740b0000760b000010
:1000f800780b00007a0b00007c0b00007e0b0000e0
:10010800800b0000820b0000840b0000860b0000af
:10011800880b00008a0b00008c0b00008e0b00007f
:10012800900b0000920b0000940b0000960b00004f
:10013800980b00009a0b00009c0b00009e0b00001f
:10014800a00b0000a20b0000a40b0000a60b0000ef
:10015800a80b0000aa0b0000ac0b0000ae0b0000bf
:10016800b00b0000b20b0000b40b0000b60b00008f
:10017800b80b0000ba0b0000bc0b0000be0b00005f
:10018800c00b0000c20b0000c40b0000c60b00002f
:10019800c80b0000ca0b0000cc0b0000ce0b0000ff
:1001a800d00b0000d20b0000d40b0000d60b0000cf
:1001b800d80b0000da0b0000dc0b0000de0b00009f
:1001c800e00b0000e20b0000e40b0000e60b00006f
:1001d800e80b0000ea0b0000ec0b0000ee0b00003f
:1001e800f00b0000f20b0000f40b0000f60b00000f
:0801f800f80b0000fa0b0000f7
:020000040000fa
:10020800000b0000020b0000040b0000060b0000ae
:10021800080b00000a0b00000c0b00000e0b00007e
:10022800100b0000120b0000140b0000160b00004e
:10023800180b00001a0b00001c0b00001e0b00001e
:10024800200b0000220b0000240b0000260b0000ee
:10025800280b00002a0b00002c0b00002e0b0000be
:10026800300b0000320b0000340b0000360b00008e
:10027800380b00003a0b00003c0b00003e0b00005e
:10028800400b0000420b0000440b0000460b00002e
:10029800480b00004a0b00004c0b00004e0b0000fe
:1002a800500b0000520b0000540b0000560b0000ce
:1002b800580b00005a0b00005c0b00005e0b00009e
:1002c800600b0000620b0000640b0000660b00006e
:1002d800680b00006a0b00006c0b00006e0b00003e
:1002e800700b0000720b0000740b0000760b00000e
:1002f800780b00007a0b00007c0b00007e0b0000de
:10030800800b0000820b0000840b0000860b0000ad
:10031800880b00008a0b00008c0b00008e0b00007d
:10032800900b0000920b0000940b0000960b00004d
:10033800980b00009a0b00009c0b00009e0b00001d
:10034800a00b0000a20b0000a40b0000a60b0000ed
:10035800a80b0000aa0b0000ac0b0000ae0b0000bd
:10036800b00b0000b20b0000b40b0000b60b00008d
:10037800b80b0000ba0b0000bc0b0000be0b00005d
:10038800c00b0000c20b0000c40b0000c60b00002d
:10039800c80b0000ca0b0000cc0b0000ce0b0000fd
:1003a800d00b0000d20b0000d40b0000d60b0000cd
:1003b800d80b0000da0b0000dc0b0000de0b00009d
:1003c800e00b0000e20b0000e40b0000e60b00006d
:1003d800e80b0000ea0b0000ec0b0000ee0b00003d
:1003e800f00b0000f20b0000f40b0000f60b00000d
:0803f800f80b0000fa0b0000f5
:020000040000fa
:10160000f9003700f8003700f7003700f600370020
:10161000f5003700f4003700f3003700f200370020
:10162000f1003700f0003700ef003700d800370036
:10163000ed003700ec003700eb003700ea00370020
:10164000e9003700e8003700e7003700e600370020
:10165000e5003700e4003700e3003700e200370020
:10166000e1003700e0003700df003700de00370020
:10167000dd003700dc003700db003700da00370020
:10168000d9003700d8003700d7003700d600370020
:10169000d5003700d4003700d3003700d200370020
:1016a000d1003700d0003700cf003700ce00370020
:1016b000cd003700cc003700cb003700ca00370020
:1016c000c9003700c8003700c7003700c600370020
:1016d000c5003700c4003700c3003700c200370020
:1016e000c1003700c0003700bf003700be00370020
:1016f000bd003700bc003700bb003700ba00370020
:10170000b9003700b8003700b7003700b60037001f
:10171000b5003700b4003700b3003700b20037001f
:10172000b1003700b0003700af003700ae0037001f
:10173000ad003700ac003700ab003700aa0037001f
:10174000a9003700a8003700a7003700a60037001f
:10175000a5003700a4003700a3003700a20037001f
:10176000a1003700a00037009f0037009e0037001f
:101770009d0037009c0037009b0037009a0037001f
:10178000990037009800370097003700960037001f
:10179000950037009400370093003700920037001f
:1017a00091003700900037008f0037008e0037001f
:1017b0008d0037008c0037008b0037008a0037001f
:1017c000890037008800370087003700860037001f
:1017d000850037008400370083003700820037001f
:1017e00081003700800037007f0037007e0037001f
:0817f0007d0037007c0037008a
:020000040000fa
:101800000f8020000eff20000e0188000000000065
:10181000000020000000e000020032000001200073
:101820002002880014000700710007000000e0009b
:1018300003003a00000020000100200002003700f1
:101840000000200001002000810f70000100320024
:1018500014000700000020000000e0000200320039
:101860000000020000000000fa0c0200000000006e
:101870000040da000000fe004440a9000000200003
:101880000000e0000300320000002000a0018800fa
:101890004440a800000006008a1f78008b1f7800d3
:1018a0000000060091018800800478000000eb0031
:1018b0001a003700e284440032a0b4009905ba004f
:1018c000e284440032a0b4009906ba00e2844400e5
:1018d00032a0b4000006eb00476fde00fd07b20047
:1018e000636ce10003003a00ebff07000000eb002f
:1018f0000a003700606ce10004003a00005deb0074
:101900008b05e900fdff3e00040037006168e1003f
:10191000010032000086eb000b00070019c7ba0077
:101920001905ba000e04e00003003a000a00e000c6
:10193000e0ff3a0000000600fe07b2009e018800aa
:101940008a047800f5ff3700395dba008b05e9009d
:101950000c003200295dba008b05e9000800320056
:101960000c00e00003003a00e284440032a0b4001e
:10197000f5ff370019ddba008b05e900faff3a00e0
:101980008904e800e184440032a0b40000000600ad
:10199000809fbe003400f80000002000a0018800f5
:1019a0000000fa008460a900201680004600de00d6
:1019b000614060000004a200614060000080fb0004
:1019c000610060004600dd00211680000160a1007a
:1019d00001007000201688000080fa003400f90031
:1019e0004f00be00004006000040da000000fe008c
:0419f00000000500ee
:020000040000fa
:1019f4000000fa00c4c2a900c0c2a90021088000e6
:101a0400f0fc2f00008060000050a0002008880037
:101a140020a12700100888008460a9009460a80011
:0c1a240005e1a80000000000feff3700f4
:020000040000fa
:0200000401f009
:04000000fcffff0002
:020000040000fa
:0200000401f009
:04000800ffffff00f7
:020000040000fa
:0200000401f009
:04000c007aff000077
:020000040000fa
:0200000401f009
:0400100012ff0000db
:020000040000fa
:0200000401f009
:040014005fff00008a
:020000040000fa
:0200000401f009
:04001800dfff000006
:020000040000fa
:0200000401f009
:04001c00fdff0000e4
:020000040000fa
:0200000401f009
:040020007fff00005e
:00000001FF
