:020000040000fa
:080000000002040000000000f2
:020000040000fa
:10000800000b0000020b0000040b0000060b0000b0
:10001800080b00000a0b00000c0b00000e0b000080
:10002800100b0000120b0000140b0000160b000050
:10003800180b00001a0b00001c0b00001e0b000020
:10004800200b0000220b0000240b0000260b0000f0
:10005800280b00002a0b00002c0b00002e0b0000c0
:10006800300b0000320b0000340b0000360b000090
:10007800380b00003a0b00003c0b00003e0b000060
:10008800400b0000420b0000440b0000460b000030
:10009800480b00004a0b00004c0b00004e0b000000
:1000a800500b0000520b0000540b0000560b0000d0
:1000b800580b00005a0b00005c0b00005e0b0000a0
:1000c800600b0000620b0000640b0000660b000070
:1000d800680b00006a0b00006c0b00006e0b000040
:1000e800700b0000720b0000740b0000760b000010
:1000f800780b00007a0b00007c0b00007e0b0000e0
:10010800800b0000820b0000840b0000860b0000af
:10011800880b00008a0b00008c0b00008e0b00007f
:10012800900b0000920b0000940b0000960b00004f
:10013800980b00009a0b00009c0b00009e0b00001f
:10014800a00b0000a20b0000a40b0000a60b0000ef
:10015800a80b0000aa0b0000ac0b0000ae0b0000bf
:10016800b00b0000b20b0000b40b0000b60b00008f
:10017800b80b0000ba0b0000bc0b0000be0b00005f
:10018800c00b0000c20b0000c40b0000c60b00002f
:10019800c80b0000ca0b0000cc0b0000ce0b0000ff
:1001a800d00b0000d20b0000d40b0000d60b0000cf
:1001b800d80b0000da0b0000dc0b0000de0b00009f
:1001c800e00b0000e20b0000e40b0000e60b00006f
:1001d800e80b0000ea0b0000ec0b0000ee0b00003f
:1001e800f00b0000f20b0000f40b0000f60b00000f
:0801f800f80b0000fa0b0000f7
:020000040000fa
:10020800000b0000020b0000040b0000060b0000ae
:10021800080b00000a0b00000c0b00000e0b00007e
:10022800100b0000120b0000140b0000160b00004e
:10023800180b00001a0b00001c0b00001e0b00001e
:10024800200b0000220b0000240b0000260b0000ee
:10025800280b00002a0b00002c0b00002e0b0000be
:10026800300b0000320b0000340b0000360b00008e
:10027800380b00003a0b00003c0b00003e0b00005e
:10028800400b0000420b0000440b0000460b00002e
:10029800480b00004a0b00004c0b00004e0b0000fe
:1002a800500b0000520b0000540b0000560b0000ce
:1002b800580b00005a0b00005c0b00005e0b00009e
:1002c800600b0000620b0000640b0000660b00006e
:1002d800680b00006a0b00006c0b00006e0b00003e
:1002e800700b0000720b0000740b0000760b00000e
:1002f800780b00007a0b00007c0b00007e0b0000de
:10030800800b0000820b0000840b0000860b0000ad
:10031800880b00008a0b00008c0b00008e0b00007d
:10032800900b0000920b0000940b0000960b00004d
:10033800980b00009a0b00009c0b00009e0b00001d
:10034800a00b0000a20b0000a40b0000a60b0000ed
:10035800a80b0000aa0b0000ac0b0000ae0b0000bd
:10036800b00b0000b20b0000b40b0000b60b00008d
:10037800b80b0000ba0b0000bc0b0000be0b00005d
:10038800c00b0000c20b0000c40b0000c60b00002d
:10039800c80b0000ca0b0000cc0b0000ce0b0000fd
:1003a800d00b0000d20b0000d40b0000d60b0000cd
:1003b800d80b0000da0b0000dc0b0000de0b00009d
:1003c800e00b0000e20b0000e40b0000e60b00006d
:1003d800e80b0000ea0b0000ec0b0000ee0b00003d
:1003e800f00b0000f20b0000f40b0000f60b00000d
:0803f800f80b0000fa0b0000f5
:020000040000fa
:100400000fa020000eff20000e0188004440a9002c
:10041000010020000100e000030032000100200084
:10042000a10188004440a800000020000000e00076
:100430000200320000000200000000002c02020056
:10044000000000000040da000000fe000040da007a
:080450000000fe0000000500a1
:020000040000fa
:100458000400fa00881f78003400f8000700200024
:10046800a7018800c4c2a800c0c2a900cce2a800a5
:10047800c8e2a900e244a9009001200040118800c8
:1004880080002800001188000002200080088800f1
:1004980020a127006008880084e0a90011e1a800d5
:1004a80013010700e50f500036003200e50f500039
:1004b80007003e00e30f500011003200e30f500028
:1004c80083003e00e20f50004f003200f200370078
:1004d800f10f5000c6003200f10f500003003e003b
:1004e800e90f5000a6003200eb003700f30f500070
:1004f800cd003200e10f4000cd003200e6003700a9
:100508001501070000047800130107004800dd000a
:1005180000007400000f78000f0107001007980012
:1005280008182000060037000804e9000a0107003f
:1005380080407800008020000000440001487800d6
:100548000800e000f8ff3a001e01be0000b02200db
:1005580001002000800f5100818f590006003e00e5
:100568001e0090000040780032e0b7001e007800be
:10057800011820002301070010c0b3001001070074
:10058800c7003700f400070000047800f2000700f5
:100598004800dd0000007400000f7800ee0007003e
:1005a8001007980008022000060037000804e90038
:1005b800e900070080407800008020000000440027
:1005c800014878000800e000f8ff3a001e01be006c
:1005d80000fe2f00f1072000800f5100818f590085
:1005e80006003e001e0090000040780032e0b70090
:1005f8001e007800010120003d01070010c0b30073
:10060800ef000700a6003700d300070000047800b9
:10061800d10007004800dd0000007400000f7800da
:10062800cd000700100798001e01be0000b0220090
:1006380001002000800f5100818f59001c003e00ee
:100648001e0090000040780032e0b7000808200043
:10065800140037001e0078001080ba0010079800b8
:100668001e00900000407800d50007001e007800aa
:100678001000ba00100798001e0090004800de0025
:1006880000407800ce0007001e009000004078006f
:10069800cb0007001e0078000080e800000f7800fb
:1006a8000804e9000800e000eaff3a000700370004
:1006b800081820000300370000c0eb00c000070046
:1006c8000804e9000800e000fbff3a007400370066
:1006d800a1000700000478009f0007004800dd0023
:1006e80000007400000f78009b00070010079800b6
:1006f8001e01be0000fe2f00f1072000800f5100f0
:10070800818f590016003e001e00900000407800be
:1007180032e0b700080120000e0037001e00780004
:100728001000ba00100798001e0090004800de0074
:1007380000407800a20007001e00900000407800ea
:100748009f0007001e0078000080e800000f780076
:100758000804e9000800e000f0ff3a00070037004d
:10076800080220000300370000c0eb0094000700d7
:100778000804e9000800e000fbff3a0048003700e1
:1007880011e1a90000c0eb0032e0b7000000eb0067
:100798001000ba00000f7800200020001000ba00f6
:1007a80010079800111180000040200000806000b0
:1007b8000000e00001003a002342a8009e007800f3
:1007c8000000eb0001007800710007000000eb005a
:1007d8006f0007009e0090000000eb000100780009
:1007e8006b0007000000eb00690007002c003700d1
:1007f80011e1a90011118000004020000080600074
:100808000000e00001003a002342a80030c0b30015
:100818006b000700a0c0b3006900070010c0b30058
:10082800670007001e0037000000fe001c003700ac
:100838008108800000002800008060000000e000bf
:1008480014003200210480000008200000806000ad
:100858000000e0000f00320011e1a9003260ef0053
:1008680000c020001000ba00000f780000c020006f
:100878001080ba00100798001e01be00f0ff2f007c
:10088800f10f2000800f5100818f590001003200c4
:1008980004000700020037000000000000ff3700d6
:1008a800fffe37000000fa003400f80007002000bf
:1008b800a7018800c4c2a900c0c2a8002022ef0076
:1008c8002222ef00c8e2a8001021ef0084e0a9006e
:1008d8000621ef000080eb0060088800000c04008f
:1008e800000000003400f9000080fa000000060053
:1008f8000000fa003400f80007002000a701880073
:1009080010118000640060000000e0000200320066
:10091800000000000000fe0010118000620060006e
:100928000000e00002003200000000000000fe00ad
:1009380010118000610060000000e0000200320039
:1009480030118000010037000080eb003400f9000e
:100958000080fa00000006000000fa003400f800e9
:1009680007002000a70188000100370000000000f0
:1009780010118000610060000000e000fbff320001
:10098800301180003400f9000080fa0000000600f1
:100998000200fa003400f80007002000a7018800d0
:1009a800000f78001e407800050007001e409000e8
:1009b800030007003400f9000080fa000000060078
:1009c8000200fa003400f80007002000a7018800a0
:1009d800004f78000100370000000000111180006e
:1009e80000202000008060000000e000faff3a00cc
:1009f8001e80fb00201188003400f9000080fa00f6
:100a0800000006000200fa00889fbe003400f800cb
:100a180007002000a7018800010f78001e04780055
:100a2800a1052400013b88000008bb000500fc006c
:100a380051052000313b8800a10a2000313b880085
:100a480061e7a80000000000000000004100240049
:100a5800013b8800200037000804e90001802000dd
:100a680081004400914078008184fb000804e9007b
:100a78000180200081004400914078008180fb00c3
:100a8800c808dd00898470000908bb000804e90073
:100a98000180200081004400914078008184fb009f
:100aa8000988bb000080e800f10320008100600095
:100ab8000100e00008003a000500fc005105200094
:100ac800313b8800a10a2000313b880061e7a8007b
:100ad80000000000000000000800e000deff3a000f
:100ae8003400f9004f04be000080fa000000060040
:100af8000400fa00889fbe003400f80007002000b8
:100b0800a7018800110798001e04900001802000aa
:100b1800010f780041002400013b880016003700cf
:100b28000804e900880044009e8040009104780091
:100b3800e18f44000f0032000908bb000500fc00eb
:100b480051052000313b8800a10a2000313b880074
:100b580061e7a8000000000000000000000000009d
:100b6800023b800001002800810061000100e000d4
:100b7800fbff3a000080e8000800e000e8ff3a00c8
:100b88003400f9004f04be000080fa00000006009f
:020000040000fa
:1016000092fb370091fb370090fb37008ffb3700d0
:101610008efb37008dfb37008cfb37008bfb3700d0
:101620008afb370089fb370088fb370087fb3700d0
:1016300086fb370085fb370084fb370083fb3700d0
:1016400082fb370081fb370080fb37007ffb3700d0
:101650007efb37007dfb37007cfb37007bfb3700d0
:101660007afb370079fb370078fb370077fb3700d0
:1016700076fb370075fb370074fb370073fb3700d0
:1016800072fb370071fb370070fb37006ffb3700d0
:101690006efb37006dfb37006cfb37006bfb3700d0
:1016a0006afb370069fb370068fb370067fb3700d0
:1016b00066fb370065fb370064fb370063fb3700d0
:1016c00062fb370061fb370060fb37005ffb3700d0
:1016d0005efb37005dfb37005cfb37005bfb3700d0
:1016e0005afb370059fb370058fb370057fb3700d0
:1016f00056fb370055fb370054fb370053fb3700d0
:1017000052fb370051fb370050fb37004ffb3700cf
:101710004efb37004dfb37004cfb37004bfb3700cf
:101720004afb370049fb370048fb370047fb3700cf
:1017300046fb370045fb370044fb370043fb3700cf
:1017400042fb370041fb370040fb37003ffb3700cf
:101750003efb37003dfb37003cfb37003bfb3700cf
:101760003afb370039fb370038fb370037fb3700cf
:1017700036fb370035fb370034fb370033fb3700cf
:1017800032fb370031fb370030fb37002ffb3700cf
:101790002efb37002dfb37002cfb37002bfb3700cf
:1017a0002afb370029fb370028fb370027fb3700cf
:1017b00026fb370025fb370024fb370023fb3700cf
:1017c00022fb370021fb370020fb37001ffb3700cf
:1017d0001efb37001dfb37001cfb37001bfb3700cf
:1017e0001afb370019fb370018fb370017fb3700cf
:0817f00016fb370015fb370062
:020000040000fa
:0200000401f009
:04000000fcffff0002
:020000040000fa
:0200000401f009
:04000800ffffff00f7
:020000040000fa
:0200000401f009
:04000c007aff000077
:020000040000fa
:0200000401f009
:0400100012ff0000db
:020000040000fa
:0200000401f009
:040014005fff00008a
:020000040000fa
:0200000401f009
:04001800dfff000006
:020000040000fa
:0200000401f009
:04001c00fdff0000e4
:020000040000fa
:0200000401f009
:040020007fff00005e
:00000001FF
